{
  "_format": "hh-sol-artifact-1",
  "contractName": "BetterBounty",
  "sourceName": "contracts/BetterBounty.sol",
  "abi": [
    {
      "inputs": [],
      "stateMutability": "nonpayable",
      "type": "constructor"
    },
    {
      "inputs": [
        {
          "internalType": "address",
          "name": "_adminWallet",
          "type": "address"
        }
      ],
      "name": "addAdmin",
      "outputs": [],
      "stateMutability": "nonpayable",
      "type": "function"
    },
    {
      "inputs": [],
      "name": "bountyCount",
      "outputs": [
        {
          "internalType": "uint256",
          "name": "",
          "type": "uint256"
        }
      ],
      "stateMutability": "view",
      "type": "function"
    },
    {
      "inputs": [
        {
          "internalType": "string",
          "name": "_id",
          "type": "string"
        },
        {
          "internalType": "string",
          "name": "_deadline",
          "type": "string"
        }
      ],
      "name": "fundBounty",
      "outputs": [],
      "stateMutability": "payable",
      "type": "function"
    },
    {
      "inputs": [
        {
          "internalType": "string",
          "name": "_id",
          "type": "string"
        }
      ],
      "name": "getBountyById",
      "outputs": [
        {
          "components": [
            {
              "internalType": "string",
              "name": "id",
              "type": "string"
            },
            {
              "internalType": "uint256",
              "name": "pool",
              "type": "uint256"
            },
            {
              "internalType": "address[]",
              "name": "funders",
              "type": "address[]"
            },
            {
              "internalType": "address[]",
              "name": "workers",
              "type": "address[]"
            },
            {
              "internalType": "string",
              "name": "deadline",
              "type": "string"
            }
          ],
          "internalType": "struct BetterBounty.Bounty",
          "name": "",
          "type": "tuple"
        }
      ],
      "stateMutability": "view",
      "type": "function"
    },
    {
      "inputs": [
        {
          "internalType": "address",
          "name": "_adminWallet",
          "type": "address"
        }
      ],
      "name": "isAdmin",
      "outputs": [
        {
          "internalType": "bool",
          "name": "",
          "type": "bool"
        }
      ],
      "stateMutability": "view",
      "type": "function"
    },
    {
      "inputs": [
        {
          "internalType": "string",
          "name": "_id",
          "type": "string"
        },
        {
          "internalType": "address",
          "name": "workerWallet",
          "type": "address"
        },
        {
          "internalType": "uint256",
          "name": "percentage",
          "type": "uint256"
        }
      ],
      "name": "payoutBounty",
      "outputs": [],
      "stateMutability": "payable",
      "type": "function"
    },
    {
      "inputs": [
        {
          "internalType": "address",
          "name": "_adminWallet",
          "type": "address"
        }
      ],
      "name": "removeAdmin",
      "outputs": [],
      "stateMutability": "nonpayable",
      "type": "function"
    },
    {
      "inputs": [
        {
          "internalType": "string",
          "name": "_id",
          "type": "string"
        }
      ],
      "name": "startWork",
      "outputs": [],
      "stateMutability": "nonpayable",
      "type": "function"
    }
  ],
  "bytecode": "0x608060405234801561001057600080fd5b5060018060003373ffffffffffffffffffffffffffffffffffffffff1673ffffffffffffffffffffffffffffffffffffffff16815260200190815260200160002060006101000a81548160ff021916908315150217905550612293806100776000396000f3fe60806040526004361061007b5760003560e01c80634c11d26f1161004e5780634c11d26f1461012d578063704802751461014957806373b51d3814610172578063864da8eb1461019b5761007b565b80631785f53c1461008057806324d7806c146100a95780633e362c96146100e657806346fc9cb114610111575b600080fd5b34801561008c57600080fd5b506100a760048036038101906100a2919061186f565b6101d8565b005b3480156100b557600080fd5b506100d060048036038101906100cb919061186f565b6102c6565b6040516100dd9190611c19565b60405180910390f35b3480156100f257600080fd5b506100fb61031c565b6040516101089190611cf6565b60405180910390f35b61012b60048036038101906101269190611940565b610322565b005b610147600480360381019061014291906118d9565b610a3f565b005b34801561015557600080fd5b50610170600480360381019061016b919061186f565b610e94565b005b34801561017e57600080fd5b5061019960048036038101906101949190611898565b610f81565b005b3480156101a757600080fd5b506101c260048036038101906101bd9190611898565b6113c5565b6040516101cf9190611cd4565b60405180910390f35b600160003373ffffffffffffffffffffffffffffffffffffffff1673ffffffffffffffffffffffffffffffffffffffff16815260200190815260200160002060009054906101000a900460ff1661026b57600061026a576040517f08c379a000000000000000000000000000000000000000000000000000000000815260040161026190611c94565b60405180910390fd5b5b6000600160008373ffffffffffffffffffffffffffffffffffffffff1673ffffffffffffffffffffffffffffffffffffffff16815260200190815260200160002060006101000a81548160ff02191690831515021790555050565b6000600160008373ffffffffffffffffffffffffffffffffffffffff1673ffffffffffffffffffffffffffffffffffffffff16815260200190815260200160002060009054906101000a900460ff169050919050565b60025481565b60003411610365576040517f08c379a000000000000000000000000000000000000000000000000000000000815260040161035c90611cb4565b60405180910390fd5b600080836040516103769190611c02565b90815260200160405180910390206040518060a001604052908160008201805461039f90611f77565b80601f01602080910402602001604051908101604052809291908181526020018280546103cb90611f77565b80156104185780601f106103ed57610100808354040283529160200191610418565b820191906000526020600020905b8154815290600101906020018083116103fb57829003601f168201915b5050505050815260200160018201548152602001600282018054806020026020016040519081016040528092919081815260200182805480156104b057602002820191906000526020600020905b8160009054906101000a900473ffffffffffffffffffffffffffffffffffffffff1673ffffffffffffffffffffffffffffffffffffffff1681526020019060010190808311610466575b505050505081526020016003820180548060200260200160405190810160405280929190818152602001828054801561053e57602002820191906000526020600020905b8160009054906101000a900473ffffffffffffffffffffffffffffffffffffffff1673ffffffffffffffffffffffffffffffffffffffff16815260200190600101908083116104f4575b5050505050815260200160048201805461055790611f77565b80601f016020809104026020016040519081016040528092919081815260200182805461058390611f77565b80156105d05780601f106105a5576101008083540402835291602001916105d0565b820191906000526020600020905b8154815290600101906020018083116105b357829003601f168201915b50505050508152505090506040518060200160405280600081525080519060200120816000015180519060200120141561084d5760006040518060a00160405280858152602001348152602001600067ffffffffffffffff81111561065e577f4e487b7100000000000000000000000000000000000000000000000000000000600052604160045260246000fd5b60405190808252806020026020018201604052801561068c5781602001602082028036833780820191505090505b508152602001600067ffffffffffffffff8111156106d3577f4e487b7100000000000000000000000000000000000000000000000000000000600052604160045260246000fd5b6040519080825280602002602001820160405280156107015781602001602082028036833780820191505090505b5081526020018481525090508060008560405161071e9190611c02565b90815260200160405180910390206000820151816000019080519060200190610748929190611681565b5060208201518160010155604082015181600201908051906020019061076f929190611707565b50606082015181600301908051906020019061078c929190611707565b5060808201518160040190805190602001906107a9929190611681565b509050506000846040516107bd9190611c02565b9081526020016040518091039020600201339080600181540180825580915050600190039060005260206000200160009091909190916101000a81548173ffffffffffffffffffffffffffffffffffffffff021916908373ffffffffffffffffffffffffffffffffffffffff1602179055506002600081548092919061084290611fda565b919050555050610a3a565b348160200181815161085f9190611dd8565b9150818152505060006001905060005b82604001515181101561090e573373ffffffffffffffffffffffffffffffffffffffff16836040015182815181106108d0577f4e487b7100000000000000000000000000000000000000000000000000000000600052603260045260246000fd5b602002602001015173ffffffffffffffffffffffffffffffffffffffff1614156108fd576000915061090e565b8061090790611fda565b905061086f565b50816000856040516109209190611c02565b9081526020016040518091039020600082015181600001908051906020019061094a929190611681565b50602082015181600101556040820151816002019080519060200190610971929190611707565b50606082015181600301908051906020019061098e929190611707565b5060808201518160040190805190602001906109ab929190611681565b509050508015610a38576000846040516109c59190611c02565b9081526020016040518091039020600201339080600181540180825580915050600190039060005260206000200160009091909190916101000a81548173ffffffffffffffffffffffffffffffffffffffff021916908373ffffffffffffffffffffffffffffffffffffffff1602179055505b505b505050565b600160003373ffffffffffffffffffffffffffffffffffffffff1673ffffffffffffffffffffffffffffffffffffffff16815260200190815260200160002060009054906101000a900460ff16610ad2576000610ad1576040517f08c379a0000000000000000000000000000000000000000000000000000000008152600401610ac890611c94565b60405180910390fd5b5b60008110158015610ae35750606481105b610b22576040517f08c379a0000000000000000000000000000000000000000000000000000000008152600401610b1990611c34565b60405180910390fd5b60008084604051610b339190611c02565b90815260200160405180910390206040518060a0016040529081600082018054610b5c90611f77565b80601f0160208091040260200160405190810160405280929190818152602001828054610b8890611f77565b8015610bd55780601f10610baa57610100808354040283529160200191610bd5565b820191906000526020600020905b815481529060010190602001808311610bb857829003601f168201915b505050505081526020016001820154815260200160028201805480602002602001604051908101604052809291908181526020018280548015610c6d57602002820191906000526020600020905b8160009054906101000a900473ffffffffffffffffffffffffffffffffffffffff1673ffffffffffffffffffffffffffffffffffffffff1681526020019060010190808311610c23575b5050505050815260200160038201805480602002602001604051908101604052809291908181526020018280548015610cfb57602002820191906000526020600020905b8160009054906101000a900473ffffffffffffffffffffffffffffffffffffffff1673ffffffffffffffffffffffffffffffffffffffff1681526020019060010190808311610cb1575b50505050508152602001600482018054610d1490611f77565b80601f0160208091040260200160405190810160405280929190818152602001828054610d4090611f77565b8015610d8d5780601f10610d6257610100808354040283529160200191610d8d565b820191906000526020600020905b815481529060010190602001808311610d7057829003601f168201915b505050505081525050905060405180602001604052806000815250805190602001208160000151805190602001201415610dfc576040517f08c379a0000000000000000000000000000000000000000000000000000000008152600401610df390611c74565b60405180910390fd5b6000610e0c838360200151611647565b905080600086604051610e1f9190611c02565b90815260200160405180910390206001016000828254610e3f9190611eb9565b925050819055508373ffffffffffffffffffffffffffffffffffffffff166108fc829081150290604051600060405180830381858888f19350505050158015610e8c573d6000803e3d6000fd5b505050505050565b600160003373ffffffffffffffffffffffffffffffffffffffff1673ffffffffffffffffffffffffffffffffffffffff16815260200190815260200160002060009054906101000a900460ff16610f27576000610f26576040517f08c379a0000000000000000000000000000000000000000000000000000000008152600401610f1d90611c94565b60405180910390fd5b5b60018060008373ffffffffffffffffffffffffffffffffffffffff1673ffffffffffffffffffffffffffffffffffffffff16815260200190815260200160002060006101000a81548160ff02191690831515021790555050565b60008082604051610f929190611c02565b90815260200160405180910390206040518060a0016040529081600082018054610fbb90611f77565b80601f0160208091040260200160405190810160405280929190818152602001828054610fe790611f77565b80156110345780601f1061100957610100808354040283529160200191611034565b820191906000526020600020905b81548152906001019060200180831161101757829003601f168201915b5050505050815260200160018201548152602001600282018054806020026020016040519081016040528092919081815260200182805480156110cc57602002820191906000526020600020905b8160009054906101000a900473ffffffffffffffffffffffffffffffffffffffff1673ffffffffffffffffffffffffffffffffffffffff1681526020019060010190808311611082575b505050505081526020016003820180548060200260200160405190810160405280929190818152602001828054801561115a57602002820191906000526020600020905b8160009054906101000a900473ffffffffffffffffffffffffffffffffffffffff1673ffffffffffffffffffffffffffffffffffffffff1681526020019060010190808311611110575b5050505050815260200160048201805461117390611f77565b80601f016020809104026020016040519081016040528092919081815260200182805461119f90611f77565b80156111ec5780601f106111c1576101008083540402835291602001916111ec565b820191906000526020600020905b8154815290600101906020018083116111cf57829003601f168201915b50505050508152505090506040518060200160405280600081525080519060200120816000015180519060200120141561125b576040517f08c379a000000000000000000000000000000000000000000000000000000000815260040161125290611c74565b60405180910390fd5b600081606001515190506000811461133e5760005b8181101561133c573373ffffffffffffffffffffffffffffffffffffffff16836060015182815181106112cc577f4e487b7100000000000000000000000000000000000000000000000000000000600052603260045260246000fd5b602002602001015173ffffffffffffffffffffffffffffffffffffffff16141561132b576040517f08c379a000000000000000000000000000000000000000000000000000000000815260040161132290611c54565b60405180910390fd5b8061133590611fda565b9050611270565b505b60008360405161134e9190611c02565b9081526020016040518091039020600301339080600181540180825580915050600190039060005260206000200160009091909190916101000a81548173ffffffffffffffffffffffffffffffffffffffff021916908373ffffffffffffffffffffffffffffffffffffffff160217905550505050565b6113cd611791565b6000826040516113dd9190611c02565b90815260200160405180910390206040518060a001604052908160008201805461140690611f77565b80601f016020809104026020016040519081016040528092919081815260200182805461143290611f77565b801561147f5780601f106114545761010080835404028352916020019161147f565b820191906000526020600020905b81548152906001019060200180831161146257829003601f168201915b50505050508152602001600182015481526020016002820180548060200260200160405190810160405280929190818152602001828054801561151757602002820191906000526020600020905b8160009054906101000a900473ffffffffffffffffffffffffffffffffffffffff1673ffffffffffffffffffffffffffffffffffffffff16815260200190600101908083116114cd575b50505050508152602001600382018054806020026020016040519081016040528092919081815260200182805480156115a557602002820191906000526020600020905b8160009054906101000a900473ffffffffffffffffffffffffffffffffffffffff1673ffffffffffffffffffffffffffffffffffffffff168152602001906001019080831161155b575b505050505081526020016004820180546115be90611f77565b80601f01602080910402602001604051908101604052809291908181526020018280546115ea90611f77565b80156116375780601f1061160c57610100808354040283529160200191611637565b820191906000526020600020905b81548152906001019060200180831161161a57829003601f168201915b5050505050815250509050919050565b6000806064846116579190611e5f565b90506000816127108561166a9190611e2e565b6116749190611e5f565b9050809250505092915050565b82805461168d90611f77565b90600052602060002090601f0160209004810192826116af57600085556116f6565b82601f106116c857805160ff19168380011785556116f6565b828001600101855582156116f6579182015b828111156116f55782518255916020019190600101906116da565b5b50905061170391906117c0565b5090565b828054828255906000526020600020908101928215611780579160200282015b8281111561177f5782518260006101000a81548173ffffffffffffffffffffffffffffffffffffffff021916908373ffffffffffffffffffffffffffffffffffffffff16021790555091602001919060010190611727565b5b50905061178d91906117c0565b5090565b6040518060a0016040528060608152602001600081526020016060815260200160608152602001606081525090565b5b808211156117d95760008160009055506001016117c1565b5090565b60006117f06117eb84611d36565b611d11565b90508281526020810184848401111561180857600080fd5b611813848285611f35565b509392505050565b60008135905061182a8161222f565b92915050565b600082601f83011261184157600080fd5b81356118518482602086016117dd565b91505092915050565b60008135905061186981612246565b92915050565b60006020828403121561188157600080fd5b600061188f8482850161181b565b91505092915050565b6000602082840312156118aa57600080fd5b600082013567ffffffffffffffff8111156118c457600080fd5b6118d084828501611830565b91505092915050565b6000806000606084860312156118ee57600080fd5b600084013567ffffffffffffffff81111561190857600080fd5b61191486828701611830565b93505060206119258682870161181b565b92505060406119368682870161185a565b9150509250925092565b6000806040838503121561195357600080fd5b600083013567ffffffffffffffff81111561196d57600080fd5b61197985828601611830565b925050602083013567ffffffffffffffff81111561199657600080fd5b6119a285828601611830565b9150509250929050565b60006119b883836119c4565b60208301905092915050565b6119cd81611eed565b82525050565b60006119de82611d77565b6119e88185611d9a565b93506119f383611d67565b8060005b83811015611a24578151611a0b88826119ac565b9750611a1683611d8d565b9250506001810190506119f7565b5085935050505092915050565b611a3a81611eff565b82525050565b6000611a4b82611d82565b611a558185611dab565b9350611a65818560208601611f44565b611a6e816120df565b840191505092915050565b6000611a8482611d82565b611a8e8185611dcd565b9350611a9e818560208601611f44565b80840191505092915050565b6000611ab7602483611dbc565b9150611ac2826120f0565b604082019050919050565b6000611ada602583611dbc565b9150611ae58261213f565b604082019050919050565b6000611afd601e83611dbc565b9150611b088261218e565b602082019050919050565b6000611b20602083611dbc565b9150611b2b826121b7565b602082019050919050565b6000611b43602b83611dbc565b9150611b4e826121e0565b604082019050919050565b600060a0830160008301518482036000860152611b768282611a40565b9150506020830151611b8b6020860182611be4565b5060408301518482036040860152611ba382826119d3565b91505060608301518482036060860152611bbd82826119d3565b91505060808301518482036080860152611bd78282611a40565b9150508091505092915050565b611bed81611f2b565b82525050565b611bfc81611f2b565b82525050565b6000611c0e8284611a79565b915081905092915050565b6000602082019050611c2e6000830184611a31565b92915050565b60006020820190508181036000830152611c4d81611aaa565b9050919050565b60006020820190508181036000830152611c6d81611acd565b9050919050565b60006020820190508181036000830152611c8d81611af0565b9050919050565b60006020820190508181036000830152611cad81611b13565b9050919050565b60006020820190508181036000830152611ccd81611b36565b9050919050565b60006020820190508181036000830152611cee8184611b59565b905092915050565b6000602082019050611d0b6000830184611bf3565b92915050565b6000611d1b611d2c565b9050611d278282611fa9565b919050565b6000604051905090565b600067ffffffffffffffff821115611d5157611d506120b0565b5b611d5a826120df565b9050602081019050919050565b6000819050602082019050919050565b600081519050919050565b600081519050919050565b6000602082019050919050565b600082825260208201905092915050565b600082825260208201905092915050565b600082825260208201905092915050565b600081905092915050565b6000611de382611f2b565b9150611dee83611f2b565b9250827fffffffffffffffffffffffffffffffffffffffffffffffffffffffffffffffff03821115611e2357611e22612023565b5b828201905092915050565b6000611e3982611f2b565b9150611e4483611f2b565b925082611e5457611e53612052565b5b828204905092915050565b6000611e6a82611f2b565b9150611e7583611f2b565b9250817fffffffffffffffffffffffffffffffffffffffffffffffffffffffffffffffff0483118215151615611eae57611ead612023565b5b828202905092915050565b6000611ec482611f2b565b9150611ecf83611f2b565b925082821015611ee257611ee1612023565b5b828203905092915050565b6000611ef882611f0b565b9050919050565b60008115159050919050565b600073ffffffffffffffffffffffffffffffffffffffff82169050919050565b6000819050919050565b82818337600083830152505050565b60005b83811015611f62578082015181840152602081019050611f47565b83811115611f71576000848401525b50505050565b60006002820490506001821680611f8f57607f821691505b60208210811415611fa357611fa2612081565b5b50919050565b611fb2826120df565b810181811067ffffffffffffffff82111715611fd157611fd06120b0565b5b80604052505050565b6000611fe582611f2b565b91507fffffffffffffffffffffffffffffffffffffffffffffffffffffffffffffffff82141561201857612017612023565b5b600182019050919050565b7f4e487b7100000000000000000000000000000000000000000000000000000000600052601160045260246000fd5b7f4e487b7100000000000000000000000000000000000000000000000000000000600052601260045260246000fd5b7f4e487b7100000000000000000000000000000000000000000000000000000000600052602260045260246000fd5b7f4e487b7100000000000000000000000000000000000000000000000000000000600052604160045260246000fd5b6000601f19601f8301169050919050565b7f50657263656e74616765206d757374206265206265747765656e203020616e6460008201527f2031303000000000000000000000000000000000000000000000000000000000602082015250565b7f596f752061726520616c726561647920776f726b696e67206f6e20746869732060008201527f6973737565000000000000000000000000000000000000000000000000000000602082015250565b7f426f756e7479207769746820494420646f65736e206e6f742065786973740000600082015250565b7f4f6e6c792061646d696e732063616e2063616c6c2074686973206d6574686f64600082015250565b7f596f75206861766520746f2070757420736f6d652045544820746f2066756e6460008201527f2074686520626f756e7479000000000000000000000000000000000000000000602082015250565b61223881611eed565b811461224357600080fd5b50565b61224f81611f2b565b811461225a57600080fd5b5056fea26469706673582212208a96aaedb0ebdde37c74103819ac56fe8529de9ea4991e944afe38898282b8b864736f6c63430008040033",
  "linkReferences": {},
  "deployedLinkReferences": {}
}